{
    "contractName": "ChainwaveDex",
    "abi": [
        {
            "inputs": [],
            "stateMutability": "nonpayable",
            "type": "constructor"
        },
        {
            "anonymous": false,
            "inputs": [
                {
                    "indexed": false,
                    "internalType": "uint256",
                    "name": "tradeId",
                    "type": "uint256"
                },
                {
                    "indexed": false,
                    "internalType": "uint256",
                    "name": "orderId",
                    "type": "uint256"
                },
                {
                    "indexed": true,
                    "internalType": "bytes32",
                    "name": "ticker",
                    "type": "bytes32"
                },
                {
                    "indexed": true,
                    "internalType": "address",
                    "name": "trader1",
                    "type": "address"
                },
                {
                    "indexed": true,
                    "internalType": "address",
                    "name": "trader2",
                    "type": "address"
                },
                {
                    "indexed": false,
                    "internalType": "uint256",
                    "name": "amount",
                    "type": "uint256"
                },
                {
                    "indexed": false,
                    "internalType": "uint256",
                    "name": "price",
                    "type": "uint256"
                },
                {
                    "indexed": false,
                    "internalType": "uint256",
                    "name": "date",
                    "type": "uint256"
                }
            ],
            "name": "NewTrade",
            "type": "event"
        },
        {
            "inputs": [
                {
                    "internalType": "bytes32",
                    "name": "ticker",
                    "type": "bytes32"
                },
                {
                    "internalType": "address",
                    "name": "tokenAddress",
                    "type": "address"
                }
            ],
            "name": "addToken",
            "outputs": [],
            "stateMutability": "nonpayable",
            "type": "function"
        },
        {
            "inputs": [],
            "name": "administrator",
            "outputs": [
                {
                    "internalType": "address",
                    "name": "",
                    "type": "address"
                }
            ],
            "stateMutability": "view",
            "type": "function"
        },
        {
            "inputs": [
                {
                    "internalType": "bytes32",
                    "name": "ticker",
                    "type": "bytes32"
                },
                {
                    "internalType": "uint256",
                    "name": "amount",
                    "type": "uint256"
                },
                {
                    "internalType": "uint256",
                    "name": "price",
                    "type": "uint256"
                },
                {
                    "internalType": "enum ChainwaveDex.Side",
                    "name": "side",
                    "type": "uint8"
                }
            ],
            "name": "createLimitOrder",
            "outputs": [],
            "stateMutability": "nonpayable",
            "type": "function"
        },
        {
            "inputs": [
                {
                    "internalType": "bytes32",
                    "name": "ticker",
                    "type": "bytes32"
                },
                {
                    "internalType": "uint256",
                    "name": "amount",
                    "type": "uint256"
                },
                {
                    "internalType": "enum ChainwaveDex.Side",
                    "name": "side",
                    "type": "uint8"
                }
            ],
            "name": "createMarketOrder",
            "outputs": [],
            "stateMutability": "nonpayable",
            "type": "function"
        },
        {
            "inputs": [
                {
                    "internalType": "uint256",
                    "name": "amount",
                    "type": "uint256"
                },
                {
                    "internalType": "bytes32",
                    "name": "ticker",
                    "type": "bytes32"
                }
            ],
            "name": "deposit",
            "outputs": [],
            "stateMutability": "nonpayable",
            "type": "function"
        },
        {
            "inputs": [
                {
                    "internalType": "bytes32",
                    "name": "ticker",
                    "type": "bytes32"
                },
                {
                    "internalType": "enum ChainwaveDex.Side",
                    "name": "side",
                    "type": "uint8"
                }
            ],
            "name": "getOrders",
            "outputs": [
                {
                    "components": [
                        {
                            "internalType": "uint256",
                            "name": "id",
                            "type": "uint256"
                        },
                        {
                            "internalType": "address",
                            "name": "trader",
                            "type": "address"
                        },
                        {
                            "internalType": "enum ChainwaveDex.Side",
                            "name": "side",
                            "type": "uint8"
                        },
                        {
                            "internalType": "bytes32",
                            "name": "ticker",
                            "type": "bytes32"
                        },
                        {
                            "internalType": "uint256",
                            "name": "amount",
                            "type": "uint256"
                        },
                        {
                            "internalType": "uint256",
                            "name": "filled",
                            "type": "uint256"
                        },
                        {
                            "internalType": "uint256",
                            "name": "price",
                            "type": "uint256"
                        },
                        {
                            "internalType": "uint256",
                            "name": "date",
                            "type": "uint256"
                        }
                    ],
                    "internalType": "struct ChainwaveDex.Order[]",
                    "name": "",
                    "type": "tuple[]"
                }
            ],
            "stateMutability": "view",
            "type": "function"
        },
        {
            "inputs": [],
            "name": "getTokens",
            "outputs": [
                {
                    "components": [
                        {
                            "internalType": "bytes32",
                            "name": "ticker",
                            "type": "bytes32"
                        },
                        {
                            "internalType": "address",
                            "name": "tokenAddress",
                            "type": "address"
                        }
                    ],
                    "internalType": "struct ChainwaveDex.Token[]",
                    "name": "",
                    "type": "tuple[]"
                }
            ],
            "stateMutability": "view",
            "type": "function"
        },
        {
            "inputs": [],
            "name": "nextOrderId",
            "outputs": [
                {
                    "internalType": "uint256",
                    "name": "",
                    "type": "uint256"
                }
            ],
            "stateMutability": "view",
            "type": "function"
        },
        {
            "inputs": [],
            "name": "nextTradeId",
            "outputs": [
                {
                    "internalType": "uint256",
                    "name": "",
                    "type": "uint256"
                }
            ],
            "stateMutability": "view",
            "type": "function"
        },
        {
            "inputs": [
                {
                    "internalType": "bytes32",
                    "name": "",
                    "type": "bytes32"
                },
                {
                    "internalType": "uint256",
                    "name": "",
                    "type": "uint256"
                },
                {
                    "internalType": "uint256",
                    "name": "",
                    "type": "uint256"
                }
            ],
            "name": "orderBook",
            "outputs": [
                {
                    "internalType": "uint256",
                    "name": "id",
                    "type": "uint256"
                },
                {
                    "internalType": "address",
                    "name": "trader",
                    "type": "address"
                },
                {
                    "internalType": "enum ChainwaveDex.Side",
                    "name": "side",
                    "type": "uint8"
                },
                {
                    "internalType": "bytes32",
                    "name": "ticker",
                    "type": "bytes32"
                },
                {
                    "internalType": "uint256",
                    "name": "amount",
                    "type": "uint256"
                },
                {
                    "internalType": "uint256",
                    "name": "filled",
                    "type": "uint256"
                },
                {
                    "internalType": "uint256",
                    "name": "price",
                    "type": "uint256"
                },
                {
                    "internalType": "uint256",
                    "name": "date",
                    "type": "uint256"
                }
            ],
            "stateMutability": "view",
            "type": "function"
        },
        {
            "inputs": [
                {
                    "internalType": "uint256",
                    "name": "",
                    "type": "uint256"
                }
            ],
            "name": "tokenList",
            "outputs": [
                {
                    "internalType": "bytes32",
                    "name": "",
                    "type": "bytes32"
                }
            ],
            "stateMutability": "view",
            "type": "function"
        },
        {
            "inputs": [
                {
                    "internalType": "bytes32",
                    "name": "",
                    "type": "bytes32"
                }
            ],
            "name": "tokens",
            "outputs": [
                {
                    "internalType": "bytes32",
                    "name": "ticker",
                    "type": "bytes32"
                },
                {
                    "internalType": "address",
                    "name": "tokenAddress",
                    "type": "address"
                }
            ],
            "stateMutability": "view",
            "type": "function"
        },
        {
            "inputs": [
                {
                    "internalType": "address",
                    "name": "",
                    "type": "address"
                },
                {
                    "internalType": "bytes32",
                    "name": "",
                    "type": "bytes32"
                }
            ],
            "name": "traderBalances",
            "outputs": [
                {
                    "internalType": "uint256",
                    "name": "",
                    "type": "uint256"
                }
            ],
            "stateMutability": "view",
            "type": "function"
        },
        {
            "inputs": [
                {
                    "internalType": "uint256",
                    "name": "amount",
                    "type": "uint256"
                },
                {
                    "internalType": "bytes32",
                    "name": "ticker",
                    "type": "bytes32"
                }
            ],
            "name": "withdraw",
            "outputs": [],
            "stateMutability": "nonpayable",
            "type": "function"
        }
    ],
    "bytecode": "608060405234801561001057600080fd5b50600380546001600160a01b03191633179055611dd7806100326000396000f3fe608060405234801561001057600080fd5b50600436106100ea5760003560e01c80639776aacf1161008c578063aa6ca80811610066578063aa6ca808146101de578063c9630cb0146101f3578063d9c0c95014610206578063f53d0a8e14610219576100ea565b80639776aacf146101a55780639ead7222146101b8578063a8d2021a146101cb576100ea565b806372ce957e116100c857806372ce957e146101545780637f2c624614610167578063813ad0831461017c578063904194a314610184576100ea565b80630bb431b6146100ef5780632a58b3301461011f57806346e9658b14610134575b600080fd5b6101026100fd36600461192f565b61022e565b604051610116989796959493929190611d1f565b60405180910390f35b6101276102a7565b6040516101169190611af5565b6101476101423660046118c8565b6102ad565b6040516101169190611a0b565b610127610162366004611820565b6103b2565b61017a6101753660046118f4565b6103cf565b005b610127610d29565b610197610192366004611876565b610d2f565b604051610116929190611afe565b61017a6101b336600461188e565b610d51565b6101276101c6366004611876565b610df5565b61017a6101d9366004611999565b610e13565b6101e6610f61565b6040516101169190611aaa565b61017a610201366004611999565b611053565b61017a61021436600461195a565b611172565b6102216116cf565b60405161011691906119ba565b6006602052826000526040600020602052816000526040600020818154811061025357fe5b600091825260209091206007909102018054600182015460028301546003840154600485015460058601546006909601549498506001600160a01b0384169750600160a01b90930460ff1695509093909288565b60005481565b60008281526006602052604081206060918360018111156102ca57fe5b8152602001908152602001600020805480602002602001604051908101604052809291908181526020016000905b828210156103a5576000848152602090819020604080516101008101825260078602909201805483526001808201546001600160a01b038116958501959095529293909291840191600160a01b90910460ff169081111561035557fe5b600181111561036057fe5b815260200160028201548152602001600382015481526020016004820154815260200160058201548152602001600682015481525050815260200190600101906102f8565b5050505090505b92915050565b600560209081526000928352604080842090915290825290205481565b60008381526004602052604090206001015483906001600160a01b03166104115760405162461bcd60e51b815260040161040890611c4e565b60405180910390fd5b836244414960e81b8114156104385760405162461bcd60e51b815260040161040890611cf5565b600183600181111561044657fe5b1415610486573360009081526005602090815260408083208884529091529020548411156104865760405162461bcd60e51b815260040161040890611c85565b600085815260066020526040812081808660018111156104a257fe5b146104ae5760006104b1565b60015b60018111156104bc57fe5b815260200190815260200160002090506000808690505b8254821080156104e35750600081115b15610b7d5760006105378484815481106104f957fe5b90600052602060002090600702016004015485858154811061051757fe5b9060005260206000209060070201600301546116de90919063ffffffff16565b90506000818311610548578261054a565b815b905061055c838263ffffffff6116de16565b925061058e8186868154811061056e57fe5b90600052602060002090600702016004015461172790919063ffffffff16565b85858154811061059a57fe5b906000526020600020906007020160040181905550336001600160a01b03168585815481106105c557fe5b906000526020600020906007020160010160009054906101000a90046001600160a01b03166001600160a01b03168b7fdb0c486e680ba8026643e6a85f8d157b5e7bcd4b32b54d564542570a9eb2041660015489898154811061062457fe5b906000526020600020906007020160000154868b8b8154811061064357fe5b90600052602060002090600702016005015442604051610667959493929190611d6e565b60405180910390a4600188600181111561067d57fe5b14156108b6573360009081526005602090815260408083208d84529091529020546106ae908263ffffffff6116de16565b3360009081526005602090815260408083208e8452909152902055845461072d90610700908790879081106106df57fe5b9060005260206000209060070201600501548361174c90919063ffffffff16565b3360009081526005602090815260408083206244414960e81b84529091529020549063ffffffff61172716565b3360009081526005602081815260408084206244414960e81b855290915282209290925586546107ac928492909189908990811061076757fe5b60009182526020808320600160079093020191909101546001600160a01b0316835282810193909352604091820181208f82529092529020549063ffffffff61172716565b600560008787815481106107bc57fe5b60009182526020808320600160079093020191909101546001600160a01b0316835282810193909352604091820181208e825290925290205584546108669061080b908790879081106106df57fe5b6005600088888154811061081b57fe5b60009182526020808320600160079093020191909101546001600160a01b0316835282810193909352604091820181206244414960e81b82529092529020549063ffffffff6116de16565b6005600087878154811061087657fe5b60009182526020808320600160079093020191909101546001600160a01b0316835282810193909352604091820181206244414960e81b82529092529020555b60008860018111156108c457fe5b1415610b4b576108fa8585815481106108d957fe5b9060005260206000209060070201600501548261174c90919063ffffffff16565b3360009081526005602090815260408083206244414960e81b845290915290205410156109395760405162461bcd60e51b815260040161040890611b91565b3360009081526005602090815260408083208d8452909152902054610964908263ffffffff61172716565b3360009081526005602090815260408083208e845290915290205584546109c290610995908790879081106106df57fe5b3360009081526005602090815260408083206244414960e81b84529091529020549063ffffffff6116de16565b3360009081526005602081815260408084206244414960e81b85529091528220929092558654610a4192849290918990899081106109fc57fe5b60009182526020808320600160079093020191909101546001600160a01b0316835282810193909352604091820181208f82529092529020549063ffffffff6116de16565b60056000878781548110610a5157fe5b60009182526020808320600160079093020191909101546001600160a01b0316835282810193909352604091820181208e82529092529020558454610afb90610aa0908790879081106106df57fe5b60056000888881548110610ab057fe5b60009182526020808320600160079093020191909101546001600160a01b0316835282810193909352604091820181206244414960e81b82529092529020549063ffffffff61172716565b60056000878781548110610b0b57fe5b60009182526020808320600160079093020191909101546001600160a01b0316835282810193909352604091820181206244414960e81b82529092529020555b60018054610b5e9163ffffffff61172716565b6001908155610b7490859063ffffffff61172716565b935050506104d3565b60005b835481108015610bc95750838381548110610b9757fe5b906000526020600020906007020160030154848481548110610bb557fe5b906000526020600020906007020160040154145b15610d1e57805b845460001901811015610d1857848160010181548110610bec57fe5b9060005260206000209060070201858281548110610c0657fe5b6000918252602090912082546007909202019081556001808301805482840180546001600160a01b0319166001600160a01b0390921691909117808255915460ff600160a01b918290041693919260ff60a01b1916918490811115610c6757fe5b0217905550600282015481600201556003820154816003015560048201548160040155600582015481600501556006820154816006015590505084805480610cab57fe5b600082815260208120600760001990930192830201818155600181810180546001600160a81b0319169055600282018390556003820183905560048201839055600582018390556006909101919091559155610d0e90839063ffffffff61172716565b9150600101610bd0565b50610b80565b505050505050505050565b60015481565b600460205260009081526040902080546001909101546001600160a01b031682565b6003546001600160a01b03163314610d7b5760405162461bcd60e51b815260040161040890611bf5565b6040805180820182528381526001600160a01b039283166020808301918252600086815260049091529283209151825551600191820180546001600160a01b031916919094161790925560028054928301815590527f405787fa12a823e0f2b7631cc41b3ba8828b3321ca811111fa75cd3aa3bb5ace0155565b60028181548110610e0257fe5b600091825260209091200154905081565b60008181526004602052604090206001015481906001600160a01b0316610e4c5760405162461bcd60e51b815260040161040890611c4e565b336000908152600560209081526040808320858452909152902054831115610e865760405162461bcd60e51b815260040161040890611b68565b336000908152600560209081526040808320858452909152902054610eb1908463ffffffff6116de16565b3360008181526005602090815260408083208784528252808320949094556004908190529083902060010154925163a9059cbb60e01b81526001600160a01b039093169263a9059cbb92610f099290918891016119f2565b602060405180830381600087803b158015610f2357600080fd5b505af1158015610f37573d6000803e3d6000fd5b505050506040513d601f19601f82011682018060405250610f5b9190810190611856565b50505050565b606080600280549050604051908082528060200260200182016040528015610fa357816020015b610f906117b2565b815260200190600190039081610f885790505b50905060005b60025481101561104d5760405180604001604052806004600060028581548110610fcf57fe5b90600052602060002001548152602001908152602001600020600001548152602001600460006002858154811061100257fe5b600091825260208083209091015483528201929092526040019020600101546001600160a01b03169052825183908390811061103a57fe5b6020908102919091010152600101610fa9565b50905090565b60008181526004602052604090206001015481906001600160a01b031661108c5760405162461bcd60e51b815260040161040890611c4e565b6000828152600460208190526040918290206001015491516323b872dd60e01b81526001600160a01b03909216916323b872dd916110d091339130918991016119ce565b602060405180830381600087803b1580156110ea57600080fd5b505af11580156110fe573d6000803e3d6000fd5b505050506040513d601f19601f820116820180604052506111229190810190611856565b5033600090815260056020908152604080832085845290915290205461114e908463ffffffff61172716565b33600090815260056020908152604080832095835294905292909220919091555050565b836244414960e81b8114156111995760405162461bcd60e51b815260040161040890611cf5565b60008581526004602052604090206001015485906001600160a01b03166111d25760405162461bcd60e51b815260040161040890611c4e565b60018360018111156111e057fe5b1415611225573360009081526005602090815260408083208984529091529020548511156112205760405162461bcd60e51b815260040161040890611c85565b611274565b611235858563ffffffff61174c16565b3360009081526005602090815260408083206244414960e81b845290915290205410156112745760405162461bcd60e51b815260040161040890611c21565b60008681526006602052604081208185600181111561128f57fe5b81526020019081526020016000209050806040518061010001604052806000548152602001336001600160a01b031681526020018660018111156112cf57fe5b815260208082018b905260408083018b9052600060608401819052608084018b90524260a0909401939093528454600180820187559584529282902084516007909402019283559083015182850180546001600160a01b0319166001600160a01b0390921691909117808255918401519394929392909160ff60a01b191690600160a01b90849081111561135f57fe5b0217905550606082015160028201556080820151600382015560a0820151600482015560c0820151600582015560e09091015160069091015580546000906113a85760006113af565b8154600019015b90505b80156116ae5760008560018111156113c657fe5b14801561140f57508181815481106113da57fe5b9060005260206000209060070201600501548260018303815481106113fb57fe5b906000526020600020906007020160050154115b15611419576116ae565b600185600181111561142757fe5b148015611470575081818154811061143b57fe5b90600052602060002090600702016005015482600183038154811061145c57fe5b906000526020600020906007020160050154105b1561147a576116ae565b6114826117c9565b82600183038154811061149157fe5b60009182526020918290206040805161010081018252600793909302909101805483526001808201546001600160a01b038116958501959095529293909291840191600160a01b90910460ff16908111156114e857fe5b60018111156114f357fe5b815260200160028201548152602001600382015481526020016004820154815260200160058201548152602001600682015481525050905082828154811061153757fe5b906000526020600020906007020183600184038154811061155457fe5b6000918252602090912082546007909202019081556001808301805482840180546001600160a01b0319166001600160a01b0390921691909117808255915460ff600160a01b918290041693919260ff60a01b19169184908111156115b557fe5b02179055506002820154816002015560038201548160030155600482015481600401556005820154816005015560068201548160060155905050808383815481106115fc57fe5b600091825260209182902083516007929092020190815590820151600180830180546001600160a01b0319166001600160a01b03909316929092178083556040850151929160ff60a01b1990911690600160a01b90849081111561165c57fe5b0217905550606082015160028201556080820151600382015560a0820151600482015560c0820151600582015560e0909101516006909101556116a682600163ffffffff6116de16565b9150506113b2565b6000546116c290600163ffffffff61172716565b6000555050505050505050565b6003546001600160a01b031681565b600061172083836040518060400160405280601e81526020017f536166654d6174683a207375627472616374696f6e206f766572666c6f770000815250611786565b9392505050565b6000828201838110156117205760405162461bcd60e51b815260040161040890611bbe565b60008261175b575060006103ac565b8282028284828161176857fe5b04146117205760405162461bcd60e51b815260040161040890611cb4565b600081848411156117aa5760405162461bcd60e51b81526004016104089190611b15565b505050900390565b604080518082019091526000808252602082015290565b60408051610100810182526000808252602082018190529091820190815260200160008019168152602001600081526020016000815260200160008152602001600081525090565b8035600281106103ac57600080fd5b60008060408385031215611832578182fd5b82356001600160a01b0381168114611848578283fd5b946020939093013593505050565b600060208284031215611867578081fd5b81518015158114611720578182fd5b600060208284031215611887578081fd5b5035919050565b600080604083850312156118a0578182fd5b8235915060208301356001600160a01b03811681146118bd578182fd5b809150509250929050565b600080604083850312156118da578182fd5b823591506118eb8460208501611811565b90509250929050565b600080600060608486031215611908578081fd5b8335925060208401359150604084013560028110611924578182fd5b809150509250925092565b600080600060608486031215611943578283fd5b505081359360208301359350604090920135919050565b6000806000806080858703121561196f578081fd5b84359350602085013592506040850135915061198e8660608701611811565b905092959194509250565b600080604083850312156119ab578182fd5b50508035926020909101359150565b6001600160a01b0391909116815260200190565b6001600160a01b039384168152919092166020820152604081019190915260600190565b6001600160a01b03929092168252602082015260400190565b602080825282518282018190526000919060409081850190868401855b82811015611a9d57815180518552868101516001600160a01b03168786015285810151611a5490611d91565b85870152606081810151908601526080808201519086015260a0808201519086015260c0808201519086015260e090810151908501526101009093019290850190600101611a28565b5091979650505050505050565b602080825282518282018190526000919060409081850190868401855b82811015611a9d578151805185528601516001600160a01b0316868501529284019290850190600101611ac7565b90815260200190565b9182526001600160a01b0316602082015260400190565b6000602080835283518082850152825b81811015611b4157858101830151858201604001528201611b25565b81811115611b525783604083870101525b50601f01601f1916929092016040019392505050565b6020808252600f908201526e42616c616e636520746f6f206c6f7760881b604082015260600190565b6020808252601390820152724461692062616c616e636520746f6f206c6f7760681b604082015260600190565b6020808252601b908201527f536166654d6174683a206164646974696f6e206f766572666c6f770000000000604082015260600190565b60208082526012908201527113db9b1e4818591b5a5b88185b1b1bddd95960721b604082015260600190565b6020808252601390820152724441492062616c616e636520746f6f206c6f7760681b604082015260600190565b60208082526019908201527f5468697320746f6b656e20646f6573206e6f7420657869737400000000000000604082015260600190565b602080825260159082015274546f6b656e2062616c616e636520746f6f206c6f7760581b604082015260600190565b60208082526021908201527f536166654d6174683a206d756c7469706c69636174696f6e206f766572666c6f6040820152607760f81b606082015260800190565b60208082526010908201526f43616e6e6f742074726164652044414960801b604082015260600190565b8881526001600160a01b03881660208201526101008101611d3f88611d91565b60408301526060820196909652608081019490945260a084019290925260c083015260e0909101529392505050565b948552602085019390935260408401919091526060830152608082015260a00190565b8060028110611d9c57fe5b91905056fea2646970667358221220f0358ae91317681d1fdd0a70b5d7e004257aa583661c52e80d9d3a76a9e2c47b64736f6c63430006030033",
    "sourcePath": "c:/Users/ben/desktop/ethereum/wavedex/contracts/ChainwaveDex.sol",
    "compiler": {
        "name": "solc",
        "version": "0.6.3+commit.8dda9521"
    },
    "functionHashes": {
        "addToken(bytes32,address)": "9776aacf",
        "administrator()": "f53d0a8e",
        "createLimitOrder(bytes32,uint256,uint256,uint8)": "d9c0c950",
        "createMarketOrder(bytes32,uint256,uint8)": "7f2c6246",
        "deposit(uint256,bytes32)": "c9630cb0",
        "getOrders(bytes32,uint8)": "46e9658b",
        "getTokens()": "aa6ca808",
        "nextOrderId()": "2a58b330",
        "nextTradeId()": "813ad083",
        "orderBook(bytes32,uint256,uint256)": "0bb431b6",
        "tokenList(uint256)": "9ead7222",
        "tokens(bytes32)": "904194a3",
        "traderBalances(address,bytes32)": "72ce957e",
        "withdraw(uint256,bytes32)": "a8d2021a"
    },
    "gasEstimates": {
        "creation": {
            "codeDepositCost": "1527800",
            "executionCost": "22431",
            "totalCost": "1550231"
        },
        "external": {
            "addToken(bytes32,address)": "83019",
            "administrator()": "1158",
            "createLimitOrder(bytes32,uint256,uint256,uint8)": "infinite",
            "createMarketOrder(bytes32,uint256,uint8)": "infinite",
            "deposit(uint256,bytes32)": "infinite",
            "getOrders(bytes32,uint8)": "infinite",
            "getTokens()": "infinite",
            "nextOrderId()": "1074",
            "nextTradeId()": "1095",
            "orderBook(bytes32,uint256,uint256)": "7388",
            "tokenList(uint256)": "2041",
            "tokens(bytes32)": "2129",
            "traderBalances(address,bytes32)": "1333",
            "withdraw(uint256,bytes32)": "infinite"
        }
    }
}