{
  "contractName": "ChainwaveDex",
  "abi": [
    {
      "inputs": [],
      "stateMutability": "nonpayable",
      "type": "constructor"
    },
    {
      "anonymous": false,
      "inputs": [
        {
          "indexed": false,
          "internalType": "uint256",
          "name": "tradeId",
          "type": "uint256"
        },
        {
          "indexed": false,
          "internalType": "uint256",
          "name": "orderId",
          "type": "uint256"
        },
        {
          "indexed": true,
          "internalType": "bytes32",
          "name": "ticker",
          "type": "bytes32"
        },
        {
          "indexed": true,
          "internalType": "address",
          "name": "trader1",
          "type": "address"
        },
        {
          "indexed": true,
          "internalType": "address",
          "name": "trader2",
          "type": "address"
        },
        {
          "indexed": false,
          "internalType": "uint256",
          "name": "amount",
          "type": "uint256"
        },
        {
          "indexed": false,
          "internalType": "uint256",
          "name": "price",
          "type": "uint256"
        },
        {
          "indexed": false,
          "internalType": "uint256",
          "name": "date",
          "type": "uint256"
        }
      ],
      "name": "NewTrade",
      "type": "event"
    },
    {
      "inputs": [],
      "name": "administrator",
      "outputs": [
        {
          "internalType": "address",
          "name": "",
          "type": "address"
        }
      ],
      "stateMutability": "view",
      "type": "function",
      "constant": true
    },
    {
      "inputs": [],
      "name": "nextOrderId",
      "outputs": [
        {
          "internalType": "uint256",
          "name": "",
          "type": "uint256"
        }
      ],
      "stateMutability": "view",
      "type": "function",
      "constant": true
    },
    {
      "inputs": [],
      "name": "nextTradeId",
      "outputs": [
        {
          "internalType": "uint256",
          "name": "",
          "type": "uint256"
        }
      ],
      "stateMutability": "view",
      "type": "function",
      "constant": true
    },
    {
      "inputs": [
        {
          "internalType": "bytes32",
          "name": "",
          "type": "bytes32"
        },
        {
          "internalType": "uint256",
          "name": "",
          "type": "uint256"
        },
        {
          "internalType": "uint256",
          "name": "",
          "type": "uint256"
        }
      ],
      "name": "orderBook",
      "outputs": [
        {
          "internalType": "uint256",
          "name": "id",
          "type": "uint256"
        },
        {
          "internalType": "address",
          "name": "trader",
          "type": "address"
        },
        {
          "internalType": "enum ChainwaveDex.Side",
          "name": "side",
          "type": "uint8"
        },
        {
          "internalType": "bytes32",
          "name": "ticker",
          "type": "bytes32"
        },
        {
          "internalType": "uint256",
          "name": "amount",
          "type": "uint256"
        },
        {
          "internalType": "uint256",
          "name": "filled",
          "type": "uint256"
        },
        {
          "internalType": "uint256",
          "name": "price",
          "type": "uint256"
        },
        {
          "internalType": "uint256",
          "name": "date",
          "type": "uint256"
        }
      ],
      "stateMutability": "view",
      "type": "function",
      "constant": true
    },
    {
      "inputs": [
        {
          "internalType": "uint256",
          "name": "",
          "type": "uint256"
        }
      ],
      "name": "tokenList",
      "outputs": [
        {
          "internalType": "bytes32",
          "name": "",
          "type": "bytes32"
        }
      ],
      "stateMutability": "view",
      "type": "function",
      "constant": true
    },
    {
      "inputs": [
        {
          "internalType": "bytes32",
          "name": "",
          "type": "bytes32"
        }
      ],
      "name": "tokens",
      "outputs": [
        {
          "internalType": "bytes32",
          "name": "ticker",
          "type": "bytes32"
        },
        {
          "internalType": "address",
          "name": "tokenAddress",
          "type": "address"
        }
      ],
      "stateMutability": "view",
      "type": "function",
      "constant": true
    },
    {
      "inputs": [
        {
          "internalType": "address",
          "name": "",
          "type": "address"
        },
        {
          "internalType": "bytes32",
          "name": "",
          "type": "bytes32"
        }
      ],
      "name": "traderBalances",
      "outputs": [
        {
          "internalType": "uint256",
          "name": "",
          "type": "uint256"
        }
      ],
      "stateMutability": "view",
      "type": "function",
      "constant": true
    },
    {
      "inputs": [
        {
          "internalType": "bytes32",
          "name": "ticker",
          "type": "bytes32"
        },
        {
          "internalType": "enum ChainwaveDex.Side",
          "name": "side",
          "type": "uint8"
        }
      ],
      "name": "getOrders",
      "outputs": [
        {
          "components": [
            {
              "internalType": "uint256",
              "name": "id",
              "type": "uint256"
            },
            {
              "internalType": "address",
              "name": "trader",
              "type": "address"
            },
            {
              "internalType": "enum ChainwaveDex.Side",
              "name": "side",
              "type": "uint8"
            },
            {
              "internalType": "bytes32",
              "name": "ticker",
              "type": "bytes32"
            },
            {
              "internalType": "uint256",
              "name": "amount",
              "type": "uint256"
            },
            {
              "internalType": "uint256",
              "name": "filled",
              "type": "uint256"
            },
            {
              "internalType": "uint256",
              "name": "price",
              "type": "uint256"
            },
            {
              "internalType": "uint256",
              "name": "date",
              "type": "uint256"
            }
          ],
          "internalType": "struct ChainwaveDex.Order[]",
          "name": "",
          "type": "tuple[]"
        }
      ],
      "stateMutability": "view",
      "type": "function",
      "constant": true
    },
    {
      "inputs": [],
      "name": "getTokens",
      "outputs": [
        {
          "components": [
            {
              "internalType": "bytes32",
              "name": "ticker",
              "type": "bytes32"
            },
            {
              "internalType": "address",
              "name": "tokenAddress",
              "type": "address"
            }
          ],
          "internalType": "struct ChainwaveDex.Token[]",
          "name": "",
          "type": "tuple[]"
        }
      ],
      "stateMutability": "view",
      "type": "function",
      "constant": true
    },
    {
      "inputs": [
        {
          "internalType": "bytes32",
          "name": "ticker",
          "type": "bytes32"
        },
        {
          "internalType": "address",
          "name": "tokenAddress",
          "type": "address"
        }
      ],
      "name": "addToken",
      "outputs": [],
      "stateMutability": "nonpayable",
      "type": "function"
    },
    {
      "inputs": [
        {
          "internalType": "bytes32",
          "name": "ticker",
          "type": "bytes32"
        },
        {
          "internalType": "uint256",
          "name": "amount",
          "type": "uint256"
        },
        {
          "internalType": "uint256",
          "name": "price",
          "type": "uint256"
        },
        {
          "internalType": "enum ChainwaveDex.Side",
          "name": "side",
          "type": "uint8"
        }
      ],
      "name": "createLimitOrder",
      "outputs": [],
      "stateMutability": "nonpayable",
      "type": "function"
    },
    {
      "inputs": [
        {
          "internalType": "bytes32",
          "name": "ticker",
          "type": "bytes32"
        },
        {
          "internalType": "uint256",
          "name": "amount",
          "type": "uint256"
        },
        {
          "internalType": "enum ChainwaveDex.Side",
          "name": "side",
          "type": "uint8"
        }
      ],
      "name": "createMarketOrder",
      "outputs": [],
      "stateMutability": "nonpayable",
      "type": "function"
    },
    {
      "inputs": [
        {
          "internalType": "uint256",
          "name": "amount",
          "type": "uint256"
        },
        {
          "internalType": "bytes32",
          "name": "ticker",
          "type": "bytes32"
        }
      ],
      "name": "deposit",
      "outputs": [],
      "stateMutability": "nonpayable",
      "type": "function"
    },
    {
      "inputs": [
        {
          "internalType": "uint256",
          "name": "amount",
          "type": "uint256"
        },
        {
          "internalType": "bytes32",
          "name": "ticker",
          "type": "bytes32"
        }
      ],
      "name": "withdraw",
      "outputs": [],
      "stateMutability": "nonpayable",
      "type": "function"
    }
  ],
  "bytecode": "0x608060405234801561001057600080fd5b5033600360006101000a81548173ffffffffffffffffffffffffffffffffffffffff021916908373ffffffffffffffffffffffffffffffffffffffff1602179055506134e8806100616000396000f3fe608060405234801561001057600080fd5b50600436106100ea5760003560e01c80639776aacf1161008c578063aa6ca80811610066578063aa6ca80814610277578063c9630cb014610295578063d9c0c950146102b1578063f53d0a8e146102cd576100ea565b80639776aacf1461020f5780639ead72221461022b578063a8d2021a1461025b576100ea565b806372ce957e116100c857806372ce957e146101745780637f2c6246146101a4578063813ad083146101c0578063904194a3146101de576100ea565b80630bb431b6146100ef5780632a58b3301461012657806346e9658b14610144575b600080fd5b6101096004803603610104919081019061298e565b6102eb565b60405161011d9897969594939291906131e9565b60405180910390f35b61012e610387565b60405161013b91906131ce565b60405180910390f35b61015e60048036036101599190810190612903565b61038d565b60405161016b9190613004565b60405180910390f35b61018e60048036036101899190810190612839565b6104dc565b60405161019b91906131ce565b60405180910390f35b6101be60048036036101b9919081019061293f565b610501565b005b6101c86115dd565b6040516101d591906131ce565b60405180910390f35b6101f860048036036101f3919081019061289e565b6115e3565b604051610206929190613063565b60405180910390f35b610229600480360361022491908101906128c7565b611627565b005b61024560048036036102409190810190612a40565b611776565b6040516102529190613048565b60405180910390f35b61027560048036036102709190810190612a69565b611797565b005b61027f611a51565b60405161028c9190613026565b60405180910390f35b6102af60048036036102aa9190810190612a69565b611b7a565b005b6102cb60048036036102c691908101906129dd565b611da3565b005b6102d56125a4565b6040516102e29190612f89565b60405180910390f35b6006602052826000526040600020602052816000526040600020818154811061031057fe5b906000526020600020906007020160009250925050508060000154908060010160009054906101000a900473ffffffffffffffffffffffffffffffffffffffff16908060010160149054906101000a900460ff16908060020154908060030154908060040154908060050154908060060154905088565b60005481565b60606006600084815260200190815260200160002060008360018111156103b057fe5b8152602001908152602001600020805480602002602001604051908101604052809291908181526020016000905b828210156104d0578382906000526020600020906007020160405180610100016040529081600082015481526020016001820160009054906101000a900473ffffffffffffffffffffffffffffffffffffffff1673ffffffffffffffffffffffffffffffffffffffff1673ffffffffffffffffffffffffffffffffffffffff1681526020016001820160149054906101000a900460ff16600181111561048057fe5b600181111561048b57fe5b815260200160028201548152602001600382015481526020016004820154815260200160058201548152602001600682015481525050815260200190600101906103de565b50505050905092915050565b6005602052816000526040600020602052806000526040600020600091509150505481565b82600073ffffffffffffffffffffffffffffffffffffffff166004600083815260200190815260200160002060010160009054906101000a900473ffffffffffffffffffffffffffffffffffffffff1673ffffffffffffffffffffffffffffffffffffffff1614156105a8576040517f08c379a000000000000000000000000000000000000000000000000000000000815260040161059f9061314e565b60405180910390fd5b837f444149000000000000000000000000000000000000000000000000000000000081141561060c576040517f08c379a0000000000000000000000000000000000000000000000000000000008152600401610603906131ae565b60405180910390fd5b60018081111561061857fe5b83600181111561062457fe5b14156106be5783600560003373ffffffffffffffffffffffffffffffffffffffff1673ffffffffffffffffffffffffffffffffffffffff16815260200190815260200160002060008781526020019081526020016000205410156106bd576040517f08c379a00000000000000000000000000000000000000000000000000000000081526004016106b49061316e565b60405180910390fd5b5b60006006600087815260200190815260200160002060008060018111156106e157fe5b8660018111156106ed57fe5b146106f95760006106fc565b60015b600181111561070757fe5b815260200190815260200160002090506000808690505b8280549050821080156107315750600081115b1561139c57600061078584848154811061074757fe5b90600052602060002090600702016004015485858154811061076557fe5b9060005260206000209060070201600301546125ca90919063ffffffff16565b905060008183116107965782610798565b815b90506107ad81846125ca90919063ffffffff16565b92506107df818686815481106107bf57fe5b90600052602060002090600702016004015461261490919063ffffffff16565b8585815481106107eb57fe5b9060005260206000209060070201600401819055503373ffffffffffffffffffffffffffffffffffffffff1685858154811061082357fe5b906000526020600020906007020160010160009054906101000a900473ffffffffffffffffffffffffffffffffffffffff1673ffffffffffffffffffffffffffffffffffffffff168b7fdb0c486e680ba8026643e6a85f8d157b5e7bcd4b32b54d564542570a9eb2041660015489898154811061089c57fe5b906000526020600020906007020160000154868b8b815481106108bb57fe5b906000526020600020906007020160050154426040516108df959493929190613267565b60405180910390a46001808111156108f357fe5b8860018111156108ff57fe5b1415610db45761096881600560003373ffffffffffffffffffffffffffffffffffffffff1673ffffffffffffffffffffffffffffffffffffffff16815260200190815260200160002060008d8152602001908152602001600020546125ca90919063ffffffff16565b600560003373ffffffffffffffffffffffffffffffffffffffff1673ffffffffffffffffffffffffffffffffffffffff16815260200190815260200160002060008c815260200190815260200160002081905550610a6e6109ef8686815481106109ce57fe5b9060005260206000209060070201600501548361266990919063ffffffff16565b600560003373ffffffffffffffffffffffffffffffffffffffff1673ffffffffffffffffffffffffffffffffffffffff16815260200190815260200160002060007f444149000000000000000000000000000000000000000000000000000000000081526020019081526020016000205461261490919063ffffffff16565b600560003373ffffffffffffffffffffffffffffffffffffffff1673ffffffffffffffffffffffffffffffffffffffff16815260200190815260200160002060007f4441490000000000000000000000000000000000000000000000000000000000815260200190815260200160002081905550610b828160056000888881548110610af657fe5b906000526020600020906007020160010160009054906101000a900473ffffffffffffffffffffffffffffffffffffffff1673ffffffffffffffffffffffffffffffffffffffff1673ffffffffffffffffffffffffffffffffffffffff16815260200190815260200160002060008d81526020019081526020016000205461261490919063ffffffff16565b60056000878781548110610b9257fe5b906000526020600020906007020160010160009054906101000a900473ffffffffffffffffffffffffffffffffffffffff1673ffffffffffffffffffffffffffffffffffffffff1673ffffffffffffffffffffffffffffffffffffffff16815260200190815260200160002060008c815260200190815260200160002081905550610d02610c46868681548110610c2557fe5b9060005260206000209060070201600501548361266990919063ffffffff16565b60056000888881548110610c5657fe5b906000526020600020906007020160010160009054906101000a900473ffffffffffffffffffffffffffffffffffffffff1673ffffffffffffffffffffffffffffffffffffffff1673ffffffffffffffffffffffffffffffffffffffff16815260200190815260200160002060007f44414900000000000000000000000000000000000000000000000000000000008152602001908152602001600020546125ca90919063ffffffff16565b60056000878781548110610d1257fe5b906000526020600020906007020160010160009054906101000a900473ffffffffffffffffffffffffffffffffffffffff1673ffffffffffffffffffffffffffffffffffffffff1673ffffffffffffffffffffffffffffffffffffffff16815260200190815260200160002060007f44414900000000000000000000000000000000000000000000000000000000008152602001908152602001600020819055505b60006001811115610dc157fe5b886001811115610dcd57fe5b141561136457610e03858581548110610de257fe5b9060005260206000209060070201600501548261266990919063ffffffff16565b600560003373ffffffffffffffffffffffffffffffffffffffff1673ffffffffffffffffffffffffffffffffffffffff16815260200190815260200160002060007f44414900000000000000000000000000000000000000000000000000000000008152602001908152602001600020541015610eb5576040517f08c379a0000000000000000000000000000000000000000000000000000000008152600401610eac906130ce565b60405180910390fd5b610f1881600560003373ffffffffffffffffffffffffffffffffffffffff1673ffffffffffffffffffffffffffffffffffffffff16815260200190815260200160002060008d81526020019081526020016000205461261490919063ffffffff16565b600560003373ffffffffffffffffffffffffffffffffffffffff1673ffffffffffffffffffffffffffffffffffffffff16815260200190815260200160002060008c81526020019081526020016000208190555061101e610f9f868681548110610f7e57fe5b9060005260206000209060070201600501548361266990919063ffffffff16565b600560003373ffffffffffffffffffffffffffffffffffffffff1673ffffffffffffffffffffffffffffffffffffffff16815260200190815260200160002060007f44414900000000000000000000000000000000000000000000000000000000008152602001908152602001600020546125ca90919063ffffffff16565b600560003373ffffffffffffffffffffffffffffffffffffffff1673ffffffffffffffffffffffffffffffffffffffff16815260200190815260200160002060007f444149000000000000000000000000000000000000000000000000000000000081526020019081526020016000208190555061113281600560008888815481106110a657fe5b906000526020600020906007020160010160009054906101000a900473ffffffffffffffffffffffffffffffffffffffff1673ffffffffffffffffffffffffffffffffffffffff1673ffffffffffffffffffffffffffffffffffffffff16815260200190815260200160002060008d8152602001908152602001600020546125ca90919063ffffffff16565b6005600087878154811061114257fe5b906000526020600020906007020160010160009054906101000a900473ffffffffffffffffffffffffffffffffffffffff1673ffffffffffffffffffffffffffffffffffffffff1673ffffffffffffffffffffffffffffffffffffffff16815260200190815260200160002060008c8152602001908152602001600020819055506112b26111f68686815481106111d557fe5b9060005260206000209060070201600501548361266990919063ffffffff16565b6005600088888154811061120657fe5b906000526020600020906007020160010160009054906101000a900473ffffffffffffffffffffffffffffffffffffffff1673ffffffffffffffffffffffffffffffffffffffff1673ffffffffffffffffffffffffffffffffffffffff16815260200190815260200160002060007f444149000000000000000000000000000000000000000000000000000000000081526020019081526020016000205461261490919063ffffffff16565b600560008787815481106112c257fe5b906000526020600020906007020160010160009054906101000a900473ffffffffffffffffffffffffffffffffffffffff1673ffffffffffffffffffffffffffffffffffffffff1673ffffffffffffffffffffffffffffffffffffffff16815260200190815260200160002060007f44414900000000000000000000000000000000000000000000000000000000008152602001908152602001600020819055505b6113796001805461261490919063ffffffff16565b60018190555061139360018561261490919063ffffffff16565b9350505061071e565b60008090505b8380549050811080156113ee57508383815481106113bc57fe5b9060005260206000209060070201600301548484815481106113da57fe5b906000526020600020906007020160040154145b156115d25760008190505b60018580549050038110156115cc5784600182018154811061141757fe5b906000526020600020906007020185828154811061143157fe5b9060005260206000209060070201600082015481600001556001820160009054906101000a900473ffffffffffffffffffffffffffffffffffffffff168160010160006101000a81548173ffffffffffffffffffffffffffffffffffffffff021916908373ffffffffffffffffffffffffffffffffffffffff1602179055506001820160149054906101000a900460ff168160010160146101000a81548160ff021916908360018111156114e157fe5b021790555060028201548160020155600382015481600301556004820154816004015560058201548160050155600682015481600601559050508480548061152557fe5b60019003818190600052602060002090600702016000808201600090556001820160006101000a81549073ffffffffffffffffffffffffffffffffffffffff02191690556001820160146101000a81549060ff021916905560028201600090556003820160009055600482016000905560058201600090556006820160009055505090556115bd60018361261490919063ffffffff16565b915080806001019150506113f9565b506113a2565b505050505050505050565b60015481565b60046020528060005260406000206000915090508060000154908060010160009054906101000a900473ffffffffffffffffffffffffffffffffffffffff16905082565b600360009054906101000a900473ffffffffffffffffffffffffffffffffffffffff1673ffffffffffffffffffffffffffffffffffffffff163373ffffffffffffffffffffffffffffffffffffffff16146116b7576040517f08c379a00000000000000000000000000000000000000000000000000000000081526004016116ae9061310e565b60405180910390fd5b60405180604001604052808381526020018273ffffffffffffffffffffffffffffffffffffffff16815250600460008481526020019081526020016000206000820151816000015560208201518160010160006101000a81548173ffffffffffffffffffffffffffffffffffffffff021916908373ffffffffffffffffffffffffffffffffffffffff16021790555090505060028290806001815401808255809150506001900390600052602060002001600090919091909150555050565b6002818154811061178357fe5b906000526020600020016000915090505481565b80600073ffffffffffffffffffffffffffffffffffffffff166004600083815260200190815260200160002060010160009054906101000a900473ffffffffffffffffffffffffffffffffffffffff1673ffffffffffffffffffffffffffffffffffffffff16141561183e576040517f08c379a00000000000000000000000000000000000000000000000000000000081526004016118359061314e565b60405180910390fd5b82600560003373ffffffffffffffffffffffffffffffffffffffff1673ffffffffffffffffffffffffffffffffffffffff16815260200190815260200160002060008481526020019081526020016000205410156118d1576040517f08c379a00000000000000000000000000000000000000000000000000000000081526004016118c8906130ae565b60405180910390fd5b61193483600560003373ffffffffffffffffffffffffffffffffffffffff1673ffffffffffffffffffffffffffffffffffffffff1681526020019081526020016000206000858152602001908152602001600020546125ca90919063ffffffff16565b600560003373ffffffffffffffffffffffffffffffffffffffff1673ffffffffffffffffffffffffffffffffffffffff1681526020019081526020016000206000848152602001908152602001600020819055506004600083815260200190815260200160002060010160009054906101000a900473ffffffffffffffffffffffffffffffffffffffff1673ffffffffffffffffffffffffffffffffffffffff1663a9059cbb33856040518363ffffffff1660e01b81526004016119f9929190612fdb565b602060405180830381600087803b158015611a1357600080fd5b505af1158015611a27573d6000803e3d6000fd5b505050506040513d601f19601f82011682018060405250611a4b9190810190612875565b50505050565b606080600280549050604051908082528060200260200182016040528015611a9357816020015b611a80612734565b815260200190600190039081611a785790505b50905060008090505b600280549050811015611b725760405180604001604052806004600060028581548110611ac557fe5b906000526020600020015481526020019081526020016000206000015481526020016004600060028581548110611af857fe5b9060005260206000200154815260200190815260200160002060010160009054906101000a900473ffffffffffffffffffffffffffffffffffffffff1673ffffffffffffffffffffffffffffffffffffffff16815250828281518110611b5a57fe5b60200260200101819052508080600101915050611a9c565b508091505090565b80600073ffffffffffffffffffffffffffffffffffffffff166004600083815260200190815260200160002060010160009054906101000a900473ffffffffffffffffffffffffffffffffffffffff1673ffffffffffffffffffffffffffffffffffffffff161415611c21576040517f08c379a0000000000000000000000000000000000000000000000000000000008152600401611c189061314e565b60405180910390fd5b6004600083815260200190815260200160002060010160009054906101000a900473ffffffffffffffffffffffffffffffffffffffff1673ffffffffffffffffffffffffffffffffffffffff166323b872dd3330866040518463ffffffff1660e01b8152600401611c9493929190612fa4565b602060405180830381600087803b158015611cae57600080fd5b505af1158015611cc2573d6000803e3d6000fd5b505050506040513d601f19601f82011682018060405250611ce69190810190612875565b50611d4a83600560003373ffffffffffffffffffffffffffffffffffffffff1673ffffffffffffffffffffffffffffffffffffffff16815260200190815260200160002060008581526020019081526020016000205461261490919063ffffffff16565b600560003373ffffffffffffffffffffffffffffffffffffffff1673ffffffffffffffffffffffffffffffffffffffff168152602001908152602001600020600084815260200190815260200160002081905550505050565b837f4441490000000000000000000000000000000000000000000000000000000000811415611e07576040517f08c379a0000000000000000000000000000000000000000000000000000000008152600401611dfe906131ae565b60405180910390fd5b84600073ffffffffffffffffffffffffffffffffffffffff166004600083815260200190815260200160002060010160009054906101000a900473ffffffffffffffffffffffffffffffffffffffff1673ffffffffffffffffffffffffffffffffffffffff161415611eae576040517f08c379a0000000000000000000000000000000000000000000000000000000008152600401611ea59061314e565b60405180910390fd5b600180811115611eba57fe5b836001811115611ec657fe5b1415611f645784600560003373ffffffffffffffffffffffffffffffffffffffff1673ffffffffffffffffffffffffffffffffffffffff1681526020019081526020016000206000888152602001908152602001600020541015611f5f576040517f08c379a0000000000000000000000000000000000000000000000000000000008152600401611f569061316e565b60405180910390fd5b61202a565b611f77848661266990919063ffffffff16565b600560003373ffffffffffffffffffffffffffffffffffffffff1673ffffffffffffffffffffffffffffffffffffffff16815260200190815260200160002060007f44414900000000000000000000000000000000000000000000000000000000008152602001908152602001600020541015612029576040517f08c379a00000000000000000000000000000000000000000000000000000000081526004016120209061312e565b60405180910390fd5b5b600060066000888152602001908152602001600020600085600181111561204d57fe5b815260200190815260200160002090508060405180610100016040528060005481526020013373ffffffffffffffffffffffffffffffffffffffff16815260200186600181111561209a57fe5b8152602001898152602001888152602001600081526020018781526020014281525090806001815401808255809150506001900390600052602060002090600702016000909190919091506000820151816000015560208201518160010160006101000a81548173ffffffffffffffffffffffffffffffffffffffff021916908373ffffffffffffffffffffffffffffffffffffffff16021790555060408201518160010160146101000a81548160ff0219169083600181111561215a57fe5b0217905550606082015181600201556080820151816003015560a0820151816004015560c0820151816005015560e0820151816006015550506000808280549050116121a75760006121b0565b60018280549050035b90505b600081111561257e57600060018111156121c957fe5b8560018111156121d557fe5b14801561221e57508181815481106121e957fe5b90600052602060002090600702016005015482600183038154811061220a57fe5b906000526020600020906007020160050154115b156122285761257e565b60018081111561223457fe5b85600181111561224057fe5b148015612289575081818154811061225457fe5b90600052602060002090600702016005015482600183038154811061227557fe5b906000526020600020906007020160050154105b156122935761257e565b61229b612767565b8260018303815481106122aa57fe5b906000526020600020906007020160405180610100016040529081600082015481526020016001820160009054906101000a900473ffffffffffffffffffffffffffffffffffffffff1673ffffffffffffffffffffffffffffffffffffffff1673ffffffffffffffffffffffffffffffffffffffff1681526020016001820160149054906101000a900460ff16600181111561234257fe5b600181111561234d57fe5b815260200160028201548152602001600382015481526020016004820154815260200160058201548152602001600682015481525050905082828154811061239157fe5b90600052602060002090600702018360018403815481106123ae57fe5b9060005260206000209060070201600082015481600001556001820160009054906101000a900473ffffffffffffffffffffffffffffffffffffffff168160010160006101000a81548173ffffffffffffffffffffffffffffffffffffffff021916908373ffffffffffffffffffffffffffffffffffffffff1602179055506001820160149054906101000a900460ff168160010160146101000a81548160ff0219169083600181111561245e57fe5b02179055506002820154816002015560038201548160030155600482015481600401556005820154816005015560068201548160060155905050808383815481106124a557fe5b90600052602060002090600702016000820151816000015560208201518160010160006101000a81548173ffffffffffffffffffffffffffffffffffffffff021916908373ffffffffffffffffffffffffffffffffffffffff16021790555060408201518160010160146101000a81548160ff0219169083600181111561252857fe5b0217905550606082015181600201556080820151816003015560a0820151816004015560c0820151816005015560e082015181600601559050506125766001836125ca90919063ffffffff16565b9150506121b3565b612594600160005461261490919063ffffffff16565b6000819055505050505050505050565b600360009054906101000a900473ffffffffffffffffffffffffffffffffffffffff1681565b600061260c83836040518060400160405280601e81526020017f536166654d6174683a207375627472616374696f6e206f766572666c6f7700008152506126d9565b905092915050565b60008082840190508381101561265f576040517f08c379a0000000000000000000000000000000000000000000000000000000008152600401612656906130ee565b60405180910390fd5b8091505092915050565b60008083141561267c57600090506126d3565b600082840290508284828161268d57fe5b04146126ce576040517f08c379a00000000000000000000000000000000000000000000000000000000081526004016126c59061318e565b60405180910390fd5b809150505b92915050565b6000838311158290612721576040517f08c379a0000000000000000000000000000000000000000000000000000000008152600401612718919061308c565b60405180910390fd5b5060008385039050809150509392505050565b604051806040016040528060008019168152602001600073ffffffffffffffffffffffffffffffffffffffff1681525090565b60405180610100016040528060008152602001600073ffffffffffffffffffffffffffffffffffffffff168152602001600060018111156127a457fe5b815260200160008019168152602001600081526020016000815260200160008152602001600081525090565b6000813590506127df81613446565b92915050565b6000815190506127f48161345d565b92915050565b60008135905061280981613474565b92915050565b60008135905061281e8161348b565b92915050565b6000813590506128338161349b565b92915050565b6000806040838503121561284c57600080fd5b600061285a858286016127d0565b925050602061286b858286016127fa565b9150509250929050565b60006020828403121561288757600080fd5b6000612895848285016127e5565b91505092915050565b6000602082840312156128b057600080fd5b60006128be848285016127fa565b91505092915050565b600080604083850312156128da57600080fd5b60006128e8858286016127fa565b92505060206128f9858286016127d0565b9150509250929050565b6000806040838503121561291657600080fd5b6000612924858286016127fa565b92505060206129358582860161280f565b9150509250929050565b60008060006060848603121561295457600080fd5b6000612962868287016127fa565b935050602061297386828701612824565b92505060406129848682870161280f565b9150509250925092565b6000806000606084860312156129a357600080fd5b60006129b1868287016127fa565b93505060206129c286828701612824565b92505060406129d386828701612824565b9150509250925092565b600080600080608085870312156129f357600080fd5b6000612a01878288016127fa565b9450506020612a1287828801612824565b9350506040612a2387828801612824565b9250506060612a348782880161280f565b91505092959194509250565b600060208284031215612a5257600080fd5b6000612a6084828501612824565b91505092915050565b60008060408385031215612a7c57600080fd5b6000612a8a85828601612824565b9250506020612a9b858286016127fa565b9150509250929050565b6000612ab18383612e9a565b6101008301905092915050565b6000612aca8383612f3c565b60408301905092915050565b612adf816133ad565b82525050565b612aee81613348565b82525050565b612afd81613348565b82525050565b6000612b0e826132da565b612b188185613315565b9350612b23836132ba565b8060005b83811015612b54578151612b3b8882612aa5565b9750612b46836132fb565b925050600181019050612b27565b5085935050505092915050565b6000612b6c826132e5565b612b768185613326565b9350612b81836132ca565b8060005b83811015612bb2578151612b998882612abe565b9750612ba483613308565b925050600181019050612b85565b5085935050505092915050565b612bc881613366565b82525050565b612bd781613366565b82525050565b612be6816133bf565b82525050565b612bf5816133bf565b82525050565b6000612c06826132f0565b612c108185613337565b9350612c208185602086016133f5565b612c2981613428565b840191505092915050565b6000612c41600f83613337565b91507f42616c616e636520746f6f206c6f7700000000000000000000000000000000006000830152602082019050919050565b6000612c81601383613337565b91507f4461692062616c616e636520746f6f206c6f77000000000000000000000000006000830152602082019050919050565b6000612cc1601b83613337565b91507f536166654d6174683a206164646974696f6e206f766572666c6f7700000000006000830152602082019050919050565b6000612d01601283613337565b91507f4f6e6c792061646d696e20616c6c6f77656400000000000000000000000000006000830152602082019050919050565b6000612d41601383613337565b91507f4441492062616c616e636520746f6f206c6f77000000000000000000000000006000830152602082019050919050565b6000612d81601983613337565b91507f5468697320746f6b656e20646f6573206e6f74206578697374000000000000006000830152602082019050919050565b6000612dc1601583613337565b91507f546f6b656e2062616c616e636520746f6f206c6f7700000000000000000000006000830152602082019050919050565b6000612e01602183613337565b91507f536166654d6174683a206d756c7469706c69636174696f6e206f766572666c6f60008301527f77000000000000000000000000000000000000000000000000000000000000006020830152604082019050919050565b6000612e67601083613337565b91507f43616e6e6f7420747261646520444149000000000000000000000000000000006000830152602082019050919050565b61010082016000820151612eb16000850182612f6b565b506020820151612ec46020850182612ae5565b506040820151612ed76040850182612bdd565b506060820151612eea6060850182612bbf565b506080820151612efd6080850182612f6b565b5060a0820151612f1060a0850182612f6b565b5060c0820151612f2360c0850182612f6b565b5060e0820151612f3660e0850182612f6b565b50505050565b604082016000820151612f526000850182612bbf565b506020820151612f656020850182612ae5565b50505050565b612f74816133a3565b82525050565b612f83816133a3565b82525050565b6000602082019050612f9e6000830184612af4565b92915050565b6000606082019050612fb96000830186612ad6565b612fc66020830185612af4565b612fd36040830184612f7a565b949350505050565b6000604082019050612ff06000830185612ad6565b612ffd6020830184612f7a565b9392505050565b6000602082019050818103600083015261301e8184612b03565b905092915050565b600060208201905081810360008301526130408184612b61565b905092915050565b600060208201905061305d6000830184612bce565b92915050565b60006040820190506130786000830185612bce565b6130856020830184612af4565b9392505050565b600060208201905081810360008301526130a68184612bfb565b905092915050565b600060208201905081810360008301526130c781612c34565b9050919050565b600060208201905081810360008301526130e781612c74565b9050919050565b6000602082019050818103600083015261310781612cb4565b9050919050565b6000602082019050818103600083015261312781612cf4565b9050919050565b6000602082019050818103600083015261314781612d34565b9050919050565b6000602082019050818103600083015261316781612d74565b9050919050565b6000602082019050818103600083015261318781612db4565b9050919050565b600060208201905081810360008301526131a781612df4565b9050919050565b600060208201905081810360008301526131c781612e5a565b9050919050565b60006020820190506131e36000830184612f7a565b92915050565b6000610100820190506131ff600083018b612f7a565b61320c602083018a612af4565b6132196040830189612bec565b6132266060830188612bce565b6132336080830187612f7a565b61324060a0830186612f7a565b61324d60c0830185612f7a565b61325a60e0830184612f7a565b9998505050505050505050565b600060a08201905061327c6000830188612f7a565b6132896020830187612f7a565b6132966040830186612f7a565b6132a36060830185612f7a565b6132b06080830184612f7a565b9695505050505050565b6000819050602082019050919050565b6000819050602082019050919050565b600081519050919050565b600081519050919050565b600081519050919050565b6000602082019050919050565b6000602082019050919050565b600082825260208201905092915050565b600082825260208201905092915050565b600082825260208201905092915050565b600061335382613383565b9050919050565b60008115159050919050565b6000819050919050565b600081905061337e82613439565b919050565b600073ffffffffffffffffffffffffffffffffffffffff82169050919050565b6000819050919050565b60006133b8826133d1565b9050919050565b60006133ca82613370565b9050919050565b60006133dc826133e3565b9050919050565b60006133ee82613383565b9050919050565b60005b838110156134135780820151818401526020810190506133f8565b83811115613422576000848401525b50505050565b6000601f19601f8301169050919050565b6002811061344357fe5b50565b61344f81613348565b811461345a57600080fd5b50565b6134668161335a565b811461347157600080fd5b50565b61347d81613366565b811461348857600080fd5b50565b6002811061349857600080fd5b50565b6134a4816133a3565b81146134af57600080fd5b5056fea2646970667358221220076a366e782793ca83641faa05edbca5da8269083b104c6a1e61b1e743483ced64736f6c63430006030033",
  "source": "pragma solidity 0.6.3;\r\npragma experimental ABIEncoderV2;\r\n\r\nimport '@openzeppelin/contracts/token/ERC20/IERC20.sol';\r\nimport '@openzeppelin/contracts/math/SafeMath.sol';\r\n\r\ncontract ChainwaveDex{\r\n\r\n    using SafeMath for uint;\r\n\r\n    enum Side {\r\n        BUY, SELL\r\n    }\r\n\r\n    struct Token{\r\n        bytes32 ticker;\r\n        address tokenAddress;\r\n    }\r\n\r\n    struct Order{\r\n        uint id;\r\n        address trader;\r\n        Side side;\r\n        bytes32 ticker;\r\n        uint amount;\r\n        uint filled;\r\n        uint price;\r\n        uint date;\r\n    }\r\n\r\n    uint public nextOrderId;\r\n    uint public nextTradeId;\r\n    bytes32 constant DAI = bytes32('DAI');\r\n    bytes32[] public tokenList;\r\n    address public administrator;\r\n\r\n    mapping(bytes32 => Token) public tokens;\r\n    mapping(address => mapping(bytes32 => uint)) public traderBalances;\r\n    mapping(bytes32 => mapping(uint => Order[])) public orderBook;\r\n\r\n     event NewTrade(\r\n        uint tradeId,\r\n        uint orderId,\r\n        bytes32 indexed ticker,\r\n        address indexed trader1,\r\n        address indexed trader2,\r\n        uint amount,\r\n        uint price,\r\n        uint date\r\n    );\r\n    \r\n    constructor() public {\r\n        administrator = msg.sender;\r\n    }\r\n\r\n    function getOrders(bytes32 ticker,Side side)\r\n    external \r\n    view \r\n    returns (Order[] memory)\r\n    {\r\n        return orderBook[ticker][uint(side)];\r\n    }\r\n\r\n    function getTokens()\r\n    external \r\n    view \r\n    returns (Token[] memory)\r\n    {\r\n        Token[] memory _tokens = new Token[](tokenList.length);\r\n        \r\n        for(uint i = 0; i< tokenList.length; i++){\r\n            _tokens[i] = Token(\r\n                tokens[tokenList[i]].ticker,\r\n                tokens[tokenList[i]].tokenAddress\r\n            );\r\n        }\r\n        \r\n        return _tokens;\r\n    }\r\n\r\n    function addToken(bytes32 ticker,address tokenAddress) \r\n    onlyAdmin() \r\n    external{\r\n\r\n            tokens[ticker] = Token(ticker,tokenAddress);\r\n            tokenList.push(ticker);\r\n\r\n        }\r\n\r\n    function createLimitOrder(\r\n        bytes32 ticker, \r\n        uint amount, \r\n        uint price, \r\n        Side side) \r\n        tokenNotDai(ticker) \r\n        tokenApproved(ticker) \r\n        external {\r\n\r\n        if(side == Side.SELL){\r\n            require(traderBalances[msg.sender][ticker] >= amount, 'Token balance too low');\r\n        } else{\r\n            require(traderBalances[msg.sender][DAI] >= amount.mul(price), 'DAI balance too low');\r\n        }\r\n\r\n        Order [] storage orders = orderBook[ticker][uint(side)];\r\n\r\n        orders.push(\r\n            Order(\r\n                nextOrderId,\r\n                msg.sender,\r\n                side,\r\n                ticker,\r\n                amount,\r\n                0,\r\n                price,\r\n                now\r\n            )\r\n        );\r\n\r\n        uint i = orders.length > 0 ? orders.length -1 : 0;\r\n\r\n        while( i > 0 ){\r\n            if(side == Side.BUY && orders[i-1].price > orders[i].price){\r\n                break;\r\n            }\r\n\r\n            if(side == Side.SELL && orders[i-1].price < orders[i].price){\r\n                break;     \r\n            }\r\n           Order memory order = orders[i-1];\r\n           orders [i-1] = orders[i];\r\n           orders[i] = order;\r\n           i = i.sub(1);\r\n        }\r\n\r\n        nextOrderId = nextOrderId.add(1);\r\n    }\r\n\r\n    function createMarketOrder(\r\n        bytes32 ticker,\r\n        uint amount,\r\n        Side side\r\n    ) \r\n    tokenApproved(ticker) \r\n    tokenNotDai(ticker) \r\n    external {\r\n        if(side == Side.SELL) {\r\n            require(traderBalances[msg.sender][ticker] >= amount, 'Token balance too low');\r\n        }\r\n\r\n        Order[] storage orders = orderBook[ticker][uint(side == Side.BUY ? Side.SELL : Side.BUY)];\r\n        uint i;\r\n        uint unfilled = amount;\r\n\r\n        while(i < orders.length && unfilled > 0){\r\n            uint liquidity = orders[i].amount.sub(orders[i].filled) ;\r\n            uint matched = (unfilled > liquidity) ? liquidity : unfilled;\r\n            unfilled = unfilled.sub(matched);\r\n            orders[i].filled = orders[i].filled.add(matched);\r\n\r\n            emit NewTrade(\r\n               nextTradeId,\r\n               orders[i].id,\r\n               ticker,\r\n               orders[i].trader,\r\n               msg.sender,\r\n               matched,\r\n               orders[i].price,\r\n               now\r\n            );\r\n\r\n            if(side == Side.SELL){\r\n                traderBalances[msg.sender][ticker] = traderBalances[msg.sender][ticker].sub(matched);\r\n                traderBalances[msg.sender][DAI] =  traderBalances[msg.sender][DAI].add(matched.mul(orders[i].price));\r\n\r\n                traderBalances[orders[i].trader][ticker] = traderBalances[orders[i].trader][ticker].add(matched);\r\n                traderBalances[orders[i].trader][DAI] =  traderBalances[orders[i].trader][DAI].sub(matched.mul(orders[i].price));\r\n            } \r\n\r\n            if(side == Side.BUY){\r\n                require(traderBalances[msg.sender][DAI] >= matched.mul(orders[i].price), 'Dai balance too low');\r\n                traderBalances[msg.sender][ticker] = traderBalances[msg.sender][ticker].add(matched);\r\n                traderBalances[msg.sender][DAI] = traderBalances[msg.sender][DAI].sub(matched.mul(orders[i].price)) ;\r\n\r\n                traderBalances[orders[i].trader][ticker] = traderBalances[orders[i].trader][ticker].sub(matched);\r\n                traderBalances[orders[i].trader][DAI] = traderBalances[orders[i].trader][DAI].add(matched.mul(orders[i].price));\r\n            } \r\n\r\n            nextTradeId = nextTradeId.add(1);\r\n            i = i.add(1);\r\n\r\n        }\r\n        //remove filled orders\r\n\r\n        uint j = 0;\r\n\r\n        while(j < orders.length && orders[i].filled == orders[i].amount){\r\n            for(uint k = j; k < orders.length - 1; k++){\r\n                orders[k] = orders[k+1];\r\n                orders.pop();\r\n                j=j.add(1);\r\n            }\r\n        }\r\n    }\r\n\r\n// WALLET FUNCTIONS\r\n    // function deposit(uint amount, bytes32 ticker) tokenApproved(ticker) external {\r\n    //     IERC20(tokens[ticker].tokenAddress).transferFrom(msg.sender,address(this),amount);\r\n    //     traderBalances[msg.sender][ticker] = traderBalances[msg.sender][ticker].add(amount);\r\n    // }\r\n\r\n    function deposit(uint amount,bytes32 ticker)\r\n        tokenApproved(ticker)\r\n        external {\r\n        IERC20(tokens[ticker].tokenAddress).transferFrom(\r\n            msg.sender,\r\n            address(this),\r\n            amount\r\n        );\r\n        traderBalances[msg.sender][ticker] = traderBalances[msg.sender][ticker].add(amount);\r\n    }\r\n    \r\n    function withdraw(uint amount, bytes32 ticker) tokenApproved(ticker) external {\r\n        require(traderBalances[msg.sender][ticker] >= amount, \"Balance too low\");\r\n        traderBalances[msg.sender][ticker] = traderBalances[msg.sender][ticker].sub(amount);\r\n        IERC20(tokens[ticker].tokenAddress).transfer(msg.sender,amount);\r\n    }\r\n\r\n    //END WALLET FUNCTIONS\r\n    modifier onlyAdmin(){\r\n        require(msg.sender == administrator, \"Only admin allowed\");\r\n        _;\r\n    }\r\n\r\n    modifier tokenApproved(bytes32 ticker){\r\n        require(tokens[ticker].tokenAddress != address(0), 'This token does not exist');\r\n        _;\r\n    }\r\n\r\n    modifier tokenNotDai(bytes32 ticker){\r\n      require(ticker != DAI, 'Cannot trade DAI');\r\n        _;\r\n    }\r\n}",
  "sourcePath": "C:/Users/ben/desktop/ethereum/wavedex/contracts/ChainwaveDex.sol",
  "compiler": {
    "name": "solc",
    "version": "0.6.3+commit.8dda9521.Emscripten.clang"
  },
  "schemaVersion": "3.2.5",
  "updatedAt": "2020-10-31T18:13:38.697Z",
  "networkType": "ethereum",
  "devdoc": {
    "methods": {}
  },
  "userdoc": {
    "methods": {}
  }
}